:100000000C945D000C9485000C9485000C94850084
:100010000C9485000C9485000C9485000C9485004C
:100020000C9485000C9485000C9485000C9485003C
:100030000C9485000C9485000C9485000C9485002C
:100040000C94460E0C9485000C9470110C94A21123
:100050000C9485000C9485000C9485000C9485000C
:100060000C9485000C94850000000008000201003B
:100070000003040700000000000000000102040863
:100080001020408001020408102001020408102002
:10009000040404040404040402020202020203032E
:1000A0000303030300000000250028002B000000CC
:1000B0000000240027002A00D21111241FBECFEF18
:1000C000D8E0DEBFCDBF11E0A0E0B1E0E0EFF0E3AB
:1000D00002C005900D92AC3DB107D9F722E0ACED1E
:1000E000B1E001C01D92A53BB207E1F710E0CAEBF9
:1000F000D0E004C02297FE010E949616C83BD107AB
:10010000C9F70E9419140C9476180C940000FC0195
:100110001182108213821282148215821682178233
:10012000108613861486158616860895CF93DF935E
:10013000EC0181E08C830E94900E6D837E838F831F
:1001400098871A861986DF91CF9108952F923F9252
:100150004F925F926F927F928F929F92AF92BF92D7
:10016000CF92DF92EF92FF920F931F93CF93DF9383
:10017000CDB7DEB72E970FB6F894DEBF0FBECDBF5A
:100180008C010E94900ED80115968D909D90AD9097
:10019000BC9018976D907C906114710439F400E064
:1001A00020E030E040E050E0BA01BCC0F801C38478
:1001B000D484E584F6840280F381E02DCD28CE2816
:1001C000CF2851F09B01AC01281939094A095B0974
:1001D00049015A014BE02EC087E03496AAC0429FE5
:1001E0007001439FF00C1124EE0EFF1ED701CD903D
:1001F000DD90ED90FC908C149D04AE04BF045CF186
:100200008C189D08AE08BF086B017C01C818D9087E
:10021000EA08FB08D8011596CD92DD92ED92FC928A
:1002200018972F5F3F4F2615370579F01A963C93A4
:100230002E931997D80119962D913C911A9718145D
:1002400019041A041B045CF206C0D8011A961C9209
:100250001E921997EFCF4BE0429F7001439FF00C25
:1002600011246F01CE0CDF1C2F5F3F4F2615370581
:1002700031F0BBE0EB0EF11CEE0EFF1E02C0E12CD4
:10028000F12CF8010581168127813085601B710BE7
:10029000820B930B0E942F154B015C01D6016D91CF
:1002A0007D918D919D916D010E942F159B01AC0157
:1002B000C501B4010E9494144B015C01C6010E9467
:1002C0000C0E082FC6010E94080E3C01C601E11465
:1002D000F10419F40E94020E22C00E94020E1B01BA
:1002E0002C01A501940160E070E080E89FE30E948A
:1002F0002B14A20191010E94E3151B012C01C701DF
:1003000004960E94020E9B01AC01C501B4010E943B
:10031000E3159B01AC01C201B1010E942C149301B1
:10032000AB01BC01CE0108960E94CB0D87E0FE0117
:100330003896DE01119601900D928A95E1F7298198
:100340003A814B815C816D817E818F8190E02E9618
:100350000FB6F894DEBF0FBECDBFDF91CF911F91D6
:100360000F91FF90EF90DF90CF90BF90AF909F9054
:100370008F907F906F905F904F903F902F90089557
:100380006F927F928F929F92AF92BF92CF92DF92A5
:10039000EF92FF920F931F93CF93DF93CDB7DEB70A
:1003A00027970FB6F894DEBF0FBECDBF7C015B016F
:1003B000FC0182819381009711F00E9432178BE03B
:1003C000F82FFA9DC001FB9D900D11240E949A16F2
:1003D000F70193838283612C712C812C912C17E07F
:1003E000F7018A149B041CF5C280D380C60CD71C6D
:1003F000F601108211821282138200E020E030E0C8
:1004000040E050E0BA01CE0101960E94CB0DFE0102
:100410003196D6011496812F01900D928A95E1F7BD
:10042000FFEF8F1A9F0A2BE0620E711CD9CFB182A9
:10043000A0821386148615861686C7010E94960030
:1004400027960FB6F894DEBF0FBECDBFDF91CF91D8
:100450001F910F91FF90EF90DF90CF90BF90AF90E2
:100460009F908F907F906F9008954F925F926F92C0
:100470007F92AF92BF92CF92DF92EF92FF920F9353
:100480001F93CF93DF93CDB7DEB727970FB6F894BE
:10049000DEBF0FBECDBFFC01A982BA82CB82DC8257
:1004A000ED82FE820F83808191816817790774F550
:1004B000ABE0A69FC001A79F900D1124A281B3813C
:1004C000A80FB91F4D905D906D907C901397CA0155
:1004D000B9016419750986099709C384D484E58430
:1004E000F684C60ED71EE81EF91EC386D486E5869E
:1004F000F6862D933D934D935D9385012B813C8131
:100500004D815E816F81CD010E94D60D27960FB679
:10051000F894DEBF0FBECDBFDF91CF911F910F9139
:10052000FF90EF90DF90CF90BF90AF907F906F9053
:100530005F904F9008954115510549F4611571057B
:1005400019F06330710579F461E070E00AC0413060
:10055000510549F4615071096230710520F463E07E
:1005600070E00C946F0D0895CF93DF93EC0161154B
:10057000710541F48C859D850E94010D4FEF5FEF61
:10058000BA012CC06130710591F48C859D850E9463
:10059000F20C0E940F1860EA7FE00E944A16AC013C
:1005A0004854544F662757FD6095762F17C0623028
:1005B000710549F48C859D850E94010D48EB5BE037
:1005C00060E070E00BC06330710569F48C859D8537
:1005D0000E94F20C40E25FEB62E070E0CE01DF913E
:1005E000CF910C945D0DDF91CF910895CF93DF9360
:1005F0006130710519F462E070E005C06230710588
:1006000031F461E070E0DF91CF910C946F0D6330B5
:100610007105E1F460E070E00E946F0DC5E0D0E08C
:1006200061E08BE00E94F50F6CE271E080E090E009
:100630000E94BF0E60E08BE00E94F50F6CE271E05B
:1006400080E090E00E94BF0E219751F7DF91CF919B
:1006500008950F931F93CF93DF93EC018B010E94BA
:10066000470D8EE091E0998388831D870C8760E0B9
:1006700070E0CE01DF91CF911F910F910C946F0D1F
:100680000F931F93CF93DF9300D0CDB7DEB78C01CC
:10069000862FF801608371834283538324833583DB
:1006A00061E02A8349830E94BC0F61E04981842F65
:1006B0000E94BC0F61E02A81822F0E94BC0FF801CA
:1006C00017821682118610861386128660E070E00B
:1006D00080810E94340F60E070E0F80182810E9406
:1006E000340F60E070E0F80184810F900F90DF918B
:1006F000CF911F910F910C94340FCF92DF92EF9214
:10070000FF920F931F93CF93DF93EC016B017A015C
:1007100089018E819F816817790729F088810E945D
:10072000340FDF82CE8288859985E816F90631F08C
:10073000B7018A810E94340FF986E8868A859B85F5
:100740000817190731F0B8018C810E94340F1B87FC
:100750000A87DF91CF911F910F91FF90EF90DF906B
:10076000CF9008956130710519F462E070E005C022
:100770006230710521F461E070E00C946F0D089512
:100780000F931F93CF93DF93EC018B010E94470DD2
:1007900088E191E0998388831E861F86188A198ACA
:1007A0001D870C8760E070E0CE01DF91CF911F9133
:1007B0000F910C946F0D4F925F926F927F928F9278
:1007C0009F92AF92BF92CF92DF92EF92FF92CF9320
:1007D000DF93EC01CE84DF84E888F98820E030E004
:1007E00040E05FE3C701B6010E9490140C84DD85F0
:1007F000C02D87FF33C0A7019601C701B6010E9433
:100800002C146B017C0120E030E0A9010E94E3156B
:1008100020E030E0A9010E942C140E94FC142B015E
:100820003C0120E030E040E251E4C701B6010E9403
:10083000E31520E030E0A9010E942C140E94FC1472
:100840004B015C0120E030E04FE753E4C701B60103
:100850000E94E31520E030E0A9013BC020E030E039
:1008600040E05FE3C701B6010E942B149B01AC017D
:100870000E942C146B017C0120E030E04FE753E430
:100880000E94E31520E030E0A9010E942C140E9490
:10089000FC142B013C0120E030E04AE253E4C701A4
:1008A000B6010E94E31520E030E040E251E40E94EE
:1008B0002C140E94FC144B015C0120E030E046E661
:1008C00053ECC701B6010E94E31520E030E04AE78F
:1008D00053E40E942C140E94FC149201A401CE0146
:1008E000DF91CF91FF90EF90DF90CF90BF90AF90CE
:1008F0009F908F907F906F905F904F900C947D03AE
:10090000CF93DF93EC0161307105B1F42FEF30E04C
:1009100044E650E06CE870E08C859D850E947D0384
:100920000E940F1864E670E00E944A16AC01662728
:1009300057FD6095762F22C062307105C1F420E02A
:1009400030E040E050E060E070E08C859D850E94E2
:100950007D030E940F186CED75E00E944A16AC01F1
:100960004C595F4F662757FD6095762F07C0672B60
:1009700051F40E94DB034FEF5FEFBA01CE01DF912C
:10098000CF910C945D0DDF91CF9108956130710589
:1009900061F06230710549F0672B71F4452B19F451
:1009A00061E070E007C00C94DB034130510521F495
:1009B00060E070E00C946F0D0895CF93DF93EC012D
:1009C0004E875F87688B798B0E94590D892B29F49C
:1009D000CE01DF91CF910C94DB03DF91CF9108958D
:1009E0006130710519F462E070E005C06230710594
:1009F00021F461E070E00C946F0D0895672B29F4E9
:100A0000452B51F461E070E005C04130510521F4FF
:100A100060E070E00C946F0D0895CF93DF93EC01CC
:100A20006115710529F48C859D850E94010D07C013
:100A30006130710561F48C859D850E94F20C4FEF49
:100A40005FEFBA01CE01DF91CF910C945D0DDF9184
:100A5000CF9108950F931F93CF93DF93EC018B01F8
:100A60000E94470D82E291E0998388831D870C875D
:100A700060E070E0CE01DF91CF911F910F910C9457
:100A80006F0D2F923F924F925F926F927F928F9253
:100A90009F92AF92BF92CF92DF92EF92FF920F930D
:100AA0001F93CF93DF9381E090E00E941F18E82E00
:100AB000F12C23E3E216F1041CF092E3E92EF12C71
:100AC0008FE090E00E942814EC010E948700B7019B
:100AD000CE010E94C00100E010E0212C312C80E307
:100AE000482E85E7582E612C712C2E143F040CF0F3
:100AF0003FC0AA80BB80A00EB11E48018DE0880EC9
:100B0000911CF80132966F01C6010E941F18F50171
:100B100081935F01FFEFCF1ADF0AC814D904A1F750
:100B20008A819B81800F911F04960E940F0EEA819B
:100B3000FB81E00FF11F80819181A281B381B7FF1A
:100B400004C0108211821282138280819181A2815D
:100B5000B38181339547A105B10524F040825182CC
:100B6000628273828FEF281A380A055F1F4FBDCF4C
:100B700000E010E020E030E080E090E0DC012E15A5
:100B80003F0594F44A815B81400F511FFA01408177
:100B9000518162817381840F951FA61FB71F2F5F3C
:100BA0003F4F055F1F4FEBCF8B879C87AD87BE877D
:100BB000CE01DF91CF911F910F91FF90EF90DF90C9
:100BC000CF90BF90AF909F908F907F906F905F90ED
:100BD0004F903F902F900895AF92BF92CF92DF92A7
:100BE000EF92FF920F931F93CF93DF93CDB7DEB7B2
:100BF00027970FB6F894DEBF0FBECDBF26E040E8C2
:100C000055E260E070E084E192E00E940E1183E022
:100C100090E00E9428148C016DE070E00E94DF0CCF
:100C200010930A020093090283E090E00E942814C6
:100C30008C0169E070E00E94DF0C109308020093C1
:100C4000070283E090E00E9428148C0162E070E0CB
:100C50000E94DF0C10930602009305028CE090E0E6
:100C60000E9428148C0125E030E046E050E06BE063
:100C700070E00E944003109304020093030205E019
:100C800010E020E030E040E050E06FEF70E0809155
:100C90000302909104020E947D0364E670E080E00C
:100CA00090E00E94BF0E20E030E040E050E060E0C5
:100CB00070E080910302909104020E947D0362E340
:100CC00070E080E090E00E94BF0E01501109C9F66B
:100CD0008EE090E00E9428148C01609107027091D0
:100CE00008020E94290310930202009301028EE081
:100CF00090E00E9428148C01609105027091060218
:100D00000E942D0D109300020093FF018EE090E0F1
:100D10000E9428148C016091090270910A020E94BD
:100D20002A051093FE010093FD0182E190E00E94EC
:100D300028148C0160910302709104020E94C00388
:100D40001093FC010093FB018FE090E00E942814B7
:100D50008C010E9487001093FA010093F90165E16C
:100D600070E0C8010E94C00100E020E030E040E0F7
:100D700050E0BA01CE0101960E94CB0DA980BA8045
:100D8000CB80DC80ED80FE800F8128E833E140E0FD
:100D900050E060E070E08091F9019091FA010E94CA
:100DA000350200E020E030E040E050E060E07FE32A
:100DB000CE0101960E94CB0DA980BA80CB80DC8049
:100DC000ED80FE800F8128E833E140E050E061E0F3
:100DD00070E08091F9019091FA010E94350200E0E3
:100DE00022E030E040E050E060E87FE3CE01019691
:100DF0000E94CB0DA980BA80CB80DC80ED80FE8084
:100E00000F8128E833E140E050E062E070E080913B
:100E1000F9019091FA010E94350200E022E030E0F1
:100E200040E050E060E87FE3CE0101960E94CB0DE8
:100E3000A980BA80CB80DC80ED80FE800F8128E81D
:100E400033E140E050E063E070E08091F90190917F
:100E5000FA010E94350200E022E030E040E050E07C
:100E600060E87FE3CE0101960E94CB0DA980BA8095
:100E7000CB80DC80ED80FE800F8128E833E140E00C
:100E800050E064E070E08091F9019091FA010E94D5
:100E9000350200E022E030E040E050E060E87FE32F
:100EA000CE0101960E94CB0DA980BA80CB80DC8058
:100EB000ED80FE800F8128E833E140E050E065E0FE
:100EC00070E08091F9019091FA010E94350200E0F2
:100ED00021E030E040E050E060E87FE3CE010196A1
:100EE0000E94CB0DA980BA80CB80DC80ED80FE8093
:100EF0000F8128E833E140E050E066E070E0809147
:100F0000F9019091FA010E94350200E021E030E001
:100F100040E050E060E87FE3CE0101960E94CB0DF7
:100F2000A980BA80CB80DC80ED80FE800F8128E82C
:100F300033E140E050E067E070E08091F90190918A
:100F4000FA010E94350200E021E030E040E050E08C
:100F500060E87FE3CE0101960E94CB0DA980BA80A4
:100F6000CB80DC80ED80FE800F8128E833E140E01B
:100F700050E068E070E08091F9019091FA010E94E0
:100F8000350200E021E030E040E050E060E87FE33F
:100F9000CE0101960E94CB0DA980BA80CB80DC8067
:100FA000ED80FE800F8128E833E140E050E069E009
:100FB00070E08091F9019091FA010E94350200E001
:100FC00022E030E040E050E060E87FE3CE010196AF
:100FD0000E94CB0DA980BA80CB80DC80ED80FE80A2
:100FE0000F8128E833E140E050E06AE070E0809152
:100FF000F9019091FA010E94350200E022E030E010
:1010000040E050E060E87FE3CE0101960E94CB0D06
:10101000A980BA80CB80DC80ED80FE800F8128E83B
:1010200033E140E050E06BE070E08091F901909195
:10103000FA010E94350200E020E030E040E050E09C
:1010400060E87FE3CE0101960E94CB0DA980BA80B3
:10105000CB80DC80ED80FE800F8128E833E140E02A
:1010600050E06CE070E08091F9019091FA010E94EB
:10107000350200E020E030E040E050E060E87FE34F
:10108000CE0101960E94CB0DA980BA80CB80DC8076
:10109000ED80FE800F8128E833E140E050E06DE014
:1010A00070E08091F9019091FA010E94350200E010
:1010B00021E030E040E050E060E07FE3CE010196C7
:1010C0000E94CB0DA980BA80CB80DC80ED80FE80B1
:1010D0000F8128E833E140E050E06EE070E080915D
:1010E000F9019091FA010E94350200E021E030E020
:1010F00040E050E0BA01CE0101960E94CB0DA980DC
:10110000BA80CB80DC80ED80FE800F8128E833E15F
:1011100040E050E06FE070E08091F9019091FA01B9
:101120000E94350201E021E030E040E050E0BA01E9
:10113000CE0101960E94CB0DA980BA80CB80DC80C5
:10114000ED80FE800F8128E833E140E050E060E16F
:1011500070E08091F9019091FA010E94350201E05E
:1011600021E030E040E050E0BA01CE0101960E945B
:10117000CB0DA980BA80CB80DC80ED80FE800F8112
:1011800028E833E140E050E061E170E08091F9014E
:101190009091FA010E94350201E021E030E040E048
:1011A00050E0BA01CE0101960E94CB0DA980BA8011
:1011B000CB80DC80ED80FE800F8128E833E140E0C9
:1011C00050E062E170E08091F9019091FA010E9493
:1011D000350201E020E030E040E050E0BA01CE010D
:1011E00001960E94CB0DA980BA80CB80DC80ED8077
:1011F000FE800F8128E833E140E050E063E170E0D9
:101200008091F9019091FA010E94350200E020E0FE
:1012100030E040E050E0BA01CE0101960E94CB0DD3
:10122000A980BA80CB80DC80ED80FE800F8128E829
:1012300033E140E050E064E170E08091F901909189
:10124000FA010E9435028FE090E00E9428148C0180
:101250000E9487001093F8010093F70161E070E0AD
:10126000C8010E94C00100E020E030E040E050E012
:10127000BA01CE0101960E94CB0DA980BA80CB8025
:10128000DC80ED80FE800F8128EB3BE040E050E009
:1012900060E070E08091F7019091F8010E943502C2
:1012A0008FE090E00E9428148C010E948700109328
:1012B000F6010093F50161E070E0C8010E94C001F1
:1012C00000E020E030E040E050E0BA01CE010196BD
:1012D0000E94CB0DA980BA80CB80DC80ED80FE809F
:1012E0000F8120E137E240E050E060E070E0809163
:1012F000F5019091F6010E94350280E090E00E9495
:101300001F18843B31F50E9441059093F4018093AE
:10131000F301FC01C080D180C6010197893F91058E
:10132000C0F4E12CF12C00E010E0E091F301F09129
:10133000F401828193818E0D9F1D04960E940F0EF1
:101340000F5F1F4FFBE0EF0EF11C0C151D0569F739
:1013500053C08091F3019091F401892B59F48FE0EF
:1013600090E00E9428148C010E9487001093F401E1
:101370000093F30161E070E08091F3019091F4013A
:101380000E94C00100E020E030E040E050E0BA01FF
:10139000CE0101960E94CB0DA980BA80CB80DC8063
:1013A000ED80FE800F8128EB3BE040E050E060E004
:1013B00070E08091F3019091F4010E94350261E0A8
:1013C00081E090E00E942718E091F301F091F40190
:1013D000E280F38002E010E0F70161917F01C80133
:1013E0000E9427180F5F1F4F0D301105A9F764EBFE
:1013F00080E090E00E9427188091F7019091F80119
:101400009093F2018093F101E091F301F091F401E6
:1014100020813181809103029091040212161306FB
:101420002CF42FEF30E040E050E004C020E030E04A
:101430004FEF50E060E070E00E947D038091F90181
:101440009091FA019093F2018093F1018091F10162
:101450009091F2010E94960068EE73E080E090E0C7
:101460000E94BF0E20E030E040E050E060E070E01D
:1014700080910302909104020E947D0368E271E072
:1014800084E192E00E94601227960FB6F894DEBFC6
:101490000FBECDBFDF91CF911F910F91FF90EF90C5
:1014A000DF90CF90BF90AF900895CF93DF93CDB7EB
:1014B000DEB727970FB6F894DEBF0FBECDBF2983E6
:1014C0003A834B835C836D837E838F83CE01019649
:1014D0000E940C0E882319F060E070E00EC0CE016F
:1014E00001960E94020EAB01BC018091FB0190911C
:1014F000FC010E94DD0461E070E08091FB019091AD
:10150000FC010E948A0DCE0101960E94080E8130D6
:10151000910541F082309105C1F0892B71F561E0B0
:1015200070E002C060E070E08091FF0190910002E5
:101530000E948A0D61E070E08091010290910202A8
:101540000E948A0D61E070E012C061E070E080915D
:10155000FF01909100020E948A0D60E070E080918E
:101560000102909102020E948A0D60E070E0809179
:10157000FD019091FE010E948A0D27960FB6F89406
:10158000DEBF0FBECDBFDF91CF910895AF92BF9266
:10159000CF92DF92EF92FF920F931F93CF93DF933F
:1015A000D82FC92F5B010E94900E6B017C0188EE41
:1015B000C80E83E0D81EE11CF11C0D2F1C2FC0E0CB
:1015C000D0E00E94900E6C157D058E059F0598F465
:1015D000CA15DB0584F484E192E00E942B101816F2
:1015E00019067CF784E192E00E9444102196F801EC
:1015F00081938F01E6CF81E090E0CA15DB0511F001
:1016000080E090E0DF91CF911F910F91FF90EF90DC
:10161000DF90CF90BF90AF9008954F925F926F92FE
:101620007F928F929F92AF92BF92CF92DF92EF9272
:10163000FF920F931F93CF93DF93CDB7DEB727971A
:101640000FB6F894DEBF0FBECDBF84E192E00E94DA
:101650002B10181619060CF08CC184E192E00E9440
:101660004410863609F449C18CF4843489F18436F7
:1016700009F4AEC0833409F06AC161E371E084E12A
:1016800092E00E94601267E070E02AC0823769F140
:1016900074F48C3609F05BC164E871E084E192E097
:1016A0000E9460128091F3019091F4019BC08337F6
:1016B00009F49DC08A3709F04AC16CE371E084E106
:1016C00092E00E9460128091F5019091F6018AC02B
:1016D0006EE271E084E192E00E9460126AE070E0E4
:1016E0008CED91E00E94C60A44C160E471E084E19F
:1016F00092E00E94601263E070E08CED91E00E9445
:10170000C60A892B09F429C16091DC0170E080E0F0
:1017100090E00E942F1520E030E04FE753E40E9454
:1017200094142B013C018090DD01E090DE01F12C4E
:101730006DE471E084E192E00E94531222E030E017
:10174000B301A20184E192E00E9416146BE571E0FE
:1017500084E192E00E945312912C4AE050E0B401DF
:1017600084E192E00E940B136CE671E084E192E068
:101770000E9453124AE050E0B70184E192E00E94D7
:10178000131301E0EF2809F400E09401B301A20172
:10179000CE0101960E94CB0DCE0101960E940F0E44
:1017A000A980BA80CB80DC80ED80FE800F8128EBA1
:1017B0003BE040E050E060E070E08091F701909104
:1017C000F8010E9435028091F7019091F8010AC05A
:1017D0006AE771E084E192E00E9460128091F90171
:1017E0009091FA019093F2018093F101ADC06FE8FE
:1017F00071E084E192E00E94601266E070E08CED9E
:1018000091E00E94C60A892B09F4A7C01091DC015F
:10181000812E912C4090DD01512C612C712C762C65
:10182000652C542C44248091DE01482A21E642167E
:101830002AEE52066104710454F441145104610407
:10184000710459F4412C512C3201439406C030E606
:10185000432E3AEE532E612C712C01E08091E10170
:10186000811101C000E0E090E001F12C6091DF0106
:1018700070E080E090E00E942F1520E030E04FE71C
:1018800053E40E949414AB01BC019701CE01019670
:101890000E94CB0DCE0101960E940F0EA980BA8046
:1018A000CB80DC80ED80FE800F81A3019201B4012A
:1018B0008091F3019091F4010E943502EBE01E9FAC
:1018C000C0011124E091F301F091F401E280F38072
:1018D000E80EF91E8C010E5F1F4F4C01FDE08F0ECC
:1018E000911CF70161917F01C8010E9427180F5FC9
:1018F0001F4F08151905A9F73CC061E070E08CED99
:1019000091E00E94C60A892B41F11091DC01612F00
:1019100070E08091F3019091F4010E94C001612F69
:1019200081E090E00E94271820E030E04FEF50E087
:101930006FEF70E080910302909104020E947D039A
:101940008091F3019091F4010E94960012C06AE91F
:1019500071E084E192E00E94601284E192E00E94D2
:101960002B10181619062CF484E192E00E94441002
:10197000F4CF8091F1019091F2010E94A600298399
:101980003A834B835C836D837E838F830E94550AE9
:1019900027960FB6F894DEBF0FBECDBFDF91CF9173
:1019A0001F910F91FF90EF90DF90CF90BF90AF907D
:1019B0009F908F907F906F905F904F9008951F93AE
:1019C000CF93DF93EC01162F6883798361E0812F39
:1019D0000E94BC0F1A8260E0812FDF91CF911F918E
:1019E0000C94F50FCF93DF93EC018A81811106C02F
:1019F00061E088810E94F50F81E08A83DF91CF91B9
:101A00000895CF93DF93EC018A81882329F060E069
:101A100088810E94F50F1A82DF91CF910895089571
:101A2000FC01848595856130710511F40C94F20CEC
:101A30000C94010D4115510529F4672B69F461E0FF
:101A400070E008C04130510539F46130710521F46E
:101A500060E070E00C946F0D08950F931F93CF9387
:101A6000DF93EC018B010E94470D8BEA91E0998393
:101A700088831D870C8760E070E0CE01DF91CF91F5
:101A80001F910F910C946F0D089508950895CF93B1
:101A9000DF93EC0185EB91E0998388830E94900E9F
:101AA0006C837D838E839F831B821A82DF91CF910B
:101AB0000895FC01828193810895FC01408751873C
:101AC000628773870895CF93DF93EC010E94900E95
:101AD0006C837D838E839F83DF91CF910895CF9315
:101AE000DF93EC018A819B818617970781F07B83C6
:101AF0006A83CE010E94630DE881F9816A817B814E
:101B00000190F081E02DCE01DF91CF910994DF911A
:101B1000CF9108950F931F93CF93DF93EC01AB0107
:101B20006F3F8FEF780749F0E881F9816A817B8107
:101B30000280F381E02DCE010995488559856A859B
:101B40007B854F3F5F4F6F4F7F4F01F10E94900E9B
:101B50000C811D812E813F81601B710B820B930BC9
:101B6000088519852A853B856017710782079307C9
:101B700068F0E881F9816A817B810480F581E02D3C
:101B8000CE01DF91CF911F910F910994DF91CF91F9
:101B90001F910F9108950F93FC014083518362833D
:101BA00073833583248306830F9108950F931F93C6
:101BB000CF93DF93CDB7DEB727970FB6F894DEBF8C
:101BC0000FBECDBFFC0109831A832B833C834D8359
:101BD0005E83262F49815A816B817C8140835183AA
:101BE000628373838D819E81958384832683279668
:101BF0000FB6F894DEBF0FBECDBFDF91CF911F911E
:101C00000F910895FC016081718182819381089513
:101C1000FC01848195810895FC0186810895CF930C
:101C2000DF93EC0120E030E0A901688179818A81AD
:101C30009B810E94901487FF04C0188219821A8227
:101C40001B8220E030E040E85FE3688179818A818F
:101C50009B810E94DF15181644F440E050E060E8D4
:101C60007FE3488359836A837B838C819D8197FFBF
:101C700002C01D821C828C819D81039724F081E02B
:101C800090E09D838C83DF91CF9108951F920F92F6
:101C90000FB60F9211242F933F938F939F93AF937F
:101CA000BF9380910C0290910D02A0910E02B09111
:101CB0000F0230910B0223E0230F2D3720F4019601
:101CC000A11DB11D05C026E8230F0296A11DB11D5F
:101CD00020930B0280930C0290930D02A0930E02AE
:101CE000B0930F028091100290911102A091120204
:101CF000B09113020196A11DB11D80931002909323
:101D00001102A0931202B0931302BF91AF919F9161
:101D10008F913F912F910F900FBE0F901F901895AC
:101D20002FB7F89460910C0270910D0280910E0211
:101D300090910F022FBF08953FB7F8948091100241
:101D400090911102A0911202B091130226B5A89BA6
:101D500005C02F3F19F00196A11DB11D3FBF662799
:101D6000782F892F9A2F620F711D811D911D42E0DE
:101D7000660F771F881F991F4A95D1F708958F9294
:101D80009F92AF92BF92CF92DF92EF92FF926B0140
:101D90007C010E949C0E4B015C01C114D104E10442
:101DA000F104F1F00E942A140E949C0E681979092E
:101DB0008A099B09683E73408105910570F321E013
:101DC000C21AD108E108F10888EE880E83E0981E57
:101DD000A11CB11CC114D104E104F10429F7DDCF29
:101DE000FF90EF90DF90CF90BF90AF909F908F903B
:101DF0000895789484B5826084BD84B5816084BD83
:101E000085B5826085BD85B5816085BDEEE6F0E073
:101E1000808181608083E1E8F0E0108280818260CF
:101E20008083808181608083E0E8F0E08081816050
:101E30008083E1EBF0E0808184608083E0EBF0E080
:101E4000808181608083EAE7F0E080818460808324
:101E500080818260808380818160808380818068CE
:101E600080831092C10008951F93CF93DF93182FA2
:101E7000EB0161E00E94BC0F209711F460E004C008
:101E8000CF3FD10539F461E0812FDF91CF911F91D0
:101E90000C94F50FE12FF0E0E859FF4FE491E330A7
:101EA000F9F048F4E130B9F0E230A1F584B5806290
:101EB00084BDC8BD34C0E730E9F0E83019F1E43042
:101EC00049F580918000806280938000D0938B00E0
:101ED000C0938A0024C084B5806884BDC7BD1FC07C
:101EE00080918000806880938000D0938900C093A7
:101EF000880015C08091B00080688093B000C093C6
:101F0000B3000DC08091B00080628093B000C09398
:101F1000B40005C0C038D1050CF0B5CFAFCFDF910C
:101F2000CF911F910895833081F028F4813099F08A
:101F30008230A1F008958730A9F08830B9F084305C
:101F4000D1F4809180008F7D03C0809180008F77D5
:101F500080938000089584B58F7702C084B58F7D0B
:101F600084BD08958091B0008F7703C08091B00048
:101F70008F7D8093B0000895CF93DF9390E0FC01B4
:101F8000E458FF4F2491FC01E057FF4F84918823D0
:101F900049F190E0880F991FFC01E255FF4FA59190
:101FA000B4918C559F4FFC01C591D4919FB761119D
:101FB00008C0F8948C91209582238C938881822389
:101FC0000AC0623051F4F8948C91322F30958323FB
:101FD0008C938881822B888304C0F8948C91822B07
:101FE0008C939FBFDF91CF9108950F931F93CF9351
:101FF000DF931F92CDB7DEB7282F30E0F901E85903
:10200000FF4F8491F901E458FF4F1491F901E05713
:10201000FF4F04910023C9F0882321F069830E94B7
:10202000930F6981E02FF0E0EE0FFF1FEC55FF4F9B
:10203000A591B4919FB7F8948C91611103C010954C
:10204000812301C0812B8C939FBF0F90DF91CF9193
:102050001F910F910895FC01818D228D90E0805C8D
:102060009F4F821B91098F7399270895FC01918DD1
:10207000828D981731F0828DE80FF11D858D90E0EB
:1020800008958FEF9FEF0895FC01918D828D981731
:1020900061F0828DDF01A80FB11D5D968C91928D4C
:1020A0009F5F9F73928F90E008958FEF9FEF089549
:1020B00088EC91E1892B49F080E090E0892B29F0B0
:1020C0000E94C81181110C9400000895FC01848DB8
:1020D000DF01A80FB11DA35ABF4F2C91848D90E052
:1020E00001968F739927848FA689B7892C93A0892D
:1020F000B1898C9180648C93938D848D981306C0E4
:102100000288F389E02D80818F7D80830895CF93AD
:10211000DF93EC01888D8823C9F0EA89FB898081EF
:1021200085FD05C0A889B9898C9186FD0FC00FB6C1
:1021300007FCF5CF808185FFF2CFA889B9898C9102
:1021400085FFEDCFCE010E946610E7CFDF91CF91E2
:102150000895CF92DF92FF920F931F93CF93DF9357
:102160001F92CDB7DEB76C0181E0D60158968C93F3
:1021700058975B969C915B975C968C915C979813B3
:1021800007C05096ED91FC915197808185FD2EC03E
:10219000F601038D10E00F5F1F4F0F731127F02E14
:1021A000F601848DF81211C00FB607FCF9CFD601E5
:1021B0005096ED91FC915197808185FFF1CFC6013A
:1021C00069830E9466106981EBCF838DE80FF11D52
:1021D000E35AFF4F6083D6015B960C935B97529650
:1021E000ED91FC915397808180620CC0D601569688
:1021F000ED91FC91579760835096ED91FC9151972A
:1022000080818064808381E090E00F90DF91CF91A6
:102210001F910F91FF90DF90CF900895BF92CF92C2
:10222000DF92EF92FF92CF93DF93EC016A017B0183
:10223000B22EE889F98982E08083411581EE580742
:1022400061057105A1F060E079E08DE390E0A70100
:1022500096010E945E162150310941095109569597
:10226000479537952795211580E1380798F0E8893B
:10227000F989108260E874E88EE190E0A701960188
:102280000E945E1621503109410951095695479522
:1022900037952795EC85FD853083EE85FF85208376
:1022A000188EEC89FD89B082EA89FB898081806182
:1022B0008083EA89FB89808188608083EA89FB8941
:1022C000808180688083EA89FB8980818F7D80831B
:1022D000DF91CF91FF90EF90DF90CF90BF90089566
:1022E0001F920F920FB60F9211242F938F939F93EB
:1022F000EF93FF93E0912402F09125028081E09119
:102300002A02F0912B0282FD12C0908180912D0251
:102310008F5F8F7320912E02821751F0E0912D0272
:10232000F0E0EC5EFD4F958F80932D0201C080811F
:10233000FF91EF919F918F912F910F900FBE0F9072
:102340001F9018951F920F920FB60F9211242F9382
:102350003F934F935F936F937F938F939F93AF932D
:10236000BF93EF93FF9384E192E00E946610FF9188
:10237000EF91BF91AF919F918F917F916F915F91FD
:102380004F913F912F910F900FBE0F901F90189576
:1023900084E192E00E942B1021E0892B09F420E0D7
:1023A000822F0895109217021092160288EE93E081
:1023B000A0E0B0E08093180290931902A0931A0253
:1023C000B0931B028FEB91E090931502809314025F
:1023D00085EC90E0909321028093200284EC90E0C1
:1023E000909323028093220280EC90E09093250248
:1023F0008093240281EC90E0909327028093260240
:1024000082EC90E0909329028093280286EC90E081
:1024100090932B0280932A0210922D0210922E028A
:1024200010922F02109230020895CF92DF92EF9215
:10243000FF920F931F93CF93DF937C016A01EB010F
:1024400000E010E00C151D0571F06991D701ED91C8
:10245000FC910190F081E02DC7010995892B19F0BD
:102460000F5F1F4FEFCFC801DF91CF911F910F91E9
:10247000FF90EF90DF90CF9008956115710581F086
:10248000DB010D900020E9F7AD0141505109461BD9
:10249000570BDC01ED91FC910280F381E02D099452
:1024A00080E090E008950C943D12DC01ED91FC91E8
:1024B0000190F081E02D09946BEC71E00C943D12D9
:1024C0000F931F93CF93DF93EC010E943D128C0179
:1024D000CE010E945C12800F911FDF91CF911F915E
:1024E0000F9108958F929F92AF92BF92DF92EF92D9
:1024F000FF920F931F93CF93DF93CDB7DEB7A197D2
:102500000FB6F894DEBF0FBECDBF7C01F42FD52EE1
:10251000CB0119A2223008F42AE08E010F5D1F4F73
:10252000822E912CA12CB12C6F2F7D2DA501940111
:102530000E945E16F22FD32ECA01015011096A3093
:1025400014F4E0E301C0E7E3E60FD801EC93232B9A
:10255000242B252B49F7B801C7010E943D12A196F3
:102560000FB6F894DEBF0FBECDBFDF91CF911F91A4
:102570000F91FF90EF90DF90BF90AF909F908F9062
:102580000895CF92DF92EF92FF920F931F93CF9314
:10259000DF93EC016A017B012115310579F4E881B3
:1025A000F9810190F081E02D642FDF91CF911F918F
:1025B0000F91FF90EF90DF90CF9009942A30310572
:1025C000E9F477FF1AC06DE20E9455128C0144278E
:1025D0005527BA014C195D096E097F092AE0CE0121
:1025E0000E947212800F911FDF91CF911F910F9166
:1025F000FF90EF90DF90CF9008952AE0B701A601F9
:10260000CE01DF91CF911F910F91FF90EF90DF905E
:10261000CF900C9472129A01AB01662757FD60951A
:10262000762F0C94C1120F931F93CF93DF93EC017D
:102630009A01AB01662757FD6095762F0E94C11263
:102640008C01CE010E945C12800F911FDF91CF910F
:102650001F910F9108954F925F926F927F928F9288
:102660009F92AF92BF92CF92DF92EF92FF920F9321
:102670001F93CF93DF93EC016A017B01B22E9A0185
:10268000AB01C701B6010E944616882319F06EEC13
:1026900071E027C026013701E89477F82FEF3FEF6C
:1026A0004FE75FE7C301B2010E94461681110DC0DA
:1026B0002FEF3FEF4FE75FE7C301B2010E94901495
:1026C00018161CF462ED71E00CC02FEF3FEF4FE7DE
:1026D0005FE4C701B6010E94DF151816ACF466ED81
:1026E00071E0CE01DF91CF911F910F91FF90EF909C
:1026F000DF90CF90BF90AF909F908F907F906F9022
:102700005F904F900C943D122FEF3FEF4FE75FEC3F
:10271000C701B6010E94901487FDE1CF20E030E0B0
:10272000A901C701B6010E94901487FF0AC06DE29B
:10273000CE010E9455128C01F7FAF094F7F8F0944C
:1027400002C000E010E0A12C60E070E080E09FE3B8
:10275000AB1441F020E030E040E251E40E949414D8
:10276000A394F6CF9B01AC01C701B6010E942C14C3
:102770006B017C010E9401152B013C010E942D156B
:102780009B01AC01C701B6010E942B146B017C01B7
:102790002AE0B301A201CE010E947212080F191F94
:1027A000BB2039F06AED71E0CE010E943D12080FA6
:1027B000191F7B2C772041F120E030E040E251E40A
:1027C000C701B6010E94E3156B017C010E94FC1455
:1027D0004B01AA2497FCA094BA2C2AE030E0B50162
:1027E000A401CE010E94C112080F191FC501B40136
:1027F0000E942F159B01AC01C701B6010E942B144A
:102800006B017C017A94D6CFC801DF91CF911F91E3
:102810000F91FF90EF90DF90CF90BF90AF909F907F
:102820008F907F906F905F904F9008950C942B1332
:1028300008950E94F90E0E9418140E94EC05C8E544
:10284000D0E10E940D0B2097E1F30E945810F9CFC0
:102850000C949A1608955058BB27AA270ED075C11C
:1028600066D130F06BD120F031F49F3F11F41EF4AB
:102870005BC10EF4E095E7FB51C1E92F77D180F3FE
:10288000BA17620773078407950718F071F49EF56D
:102890008FC10EF4E0950B2EBA2FA02D0B01B901BC
:1028A00090010C01CA01A0011124FF27591B99F0C6
:1028B000593F50F4503E68F11A16F040A22F232FD2
:1028C000342F4427585FF3CF469537952795A79522
:1028D000F0405395C9F77EF41F16BA0B620B730BC9
:1028E000840BBAF09150A1F0FF0FBB1F661F771F3A
:1028F000881FC2F70EC0BA0F621F731F841F48F4EF
:10290000879577956795B795F7959E3F08F0B3CF74
:102910009395880F08F09927EE0F9795879508955E
:10292000D9D008F481E008950CD00FC107D140F050
:10293000FED030F021F45F3F19F0F0C0511139C1E1
:10294000F3C014D198F39923C9F35523B1F3951B20
:10295000550BBB27AA2762177307840738F09F5FC0
:102960005F4F220F331F441FAA1FA9F333D00E2E2F
:102970003AF0E0E830D091505040E695001CCAF79C
:1029800029D0FE2F27D0660F771F881FBB1F261761
:1029900037074807AB07B0E809F0BB0B802DBF0134
:1029A000FF2793585F4F2AF09E3F510568F0B6C04D
:1029B00000C15F3FECF3983EDCF386957795679511
:1029C000B795F7959F5FC9F7880F911D96958795E5
:1029D00097F90895E1E0660F771F881FBB1F621704
:1029E00073078407BA0720F0621B730B840BBA0BC2
:1029F000EE1F88F7E095089504D06894B111D9C00E
:102A00000895BCD088F09F5790F0B92F9927B751FF
:102A1000A0F0D1F0660F771F881F991F1AF0BA95A2
:102A2000C9F712C0B13081F0C3D0B1E00895C0C081
:102A3000672F782F8827B85F39F0B93FCCF3869598
:102A400077956795B395D9F73EF4909580957095F5
:102A500061957F4F8F4F9F4F0895E89409C097FB72
:102A60003EF490958095709561957F4F8F4F9F4F65
:102A70009923A9F0F92F96E9BB279395F6958795A9
:102A800077956795B795F111F8CFFAF4BB0F11F46C
:102A900060FF1BC06F5F7F4F8F4F9F4F16C0882313
:102AA00011F096E911C0772321F09EE8872F762F49
:102AB00005C0662371F096E8862F70E060E02AF08A
:102AC0009A95660F771F881FDAF7880F9695879576
:102AD00097F90895990F0008550FAA0BE0E8FEEF4B
:102AE00016161706E807F907C0F012161306E407D2
:102AF000F50798F0621B730B840B950B39F40A26CB
:102B000061F0232B242B252B21F408950A2609F4A8
:102B1000A140A6958FEF811D811D089597F99F67AC
:102B200080E870E060E008959FEF80EC0895002455
:102B30000A941616170618060906089500240A9422
:102B400012161306140605060895092E0394000CA8
:102B500011F4882352F0BB0F40F4BF2B11F460FF37
:102B600004C06F5F7F4F8F4F9F4F089557FD905860
:102B7000440F551F59F05F3F71F04795880F97FB41
:102B8000991F61F09F3F79F08795089512161306FB
:102B90001406551FF2CF4695F1DF08C0161617062A
:102BA0001806991FF1CF869571056105089408955F
:102BB000E894BB2766277727CB0197F908958ADF2A
:102BC00008F48FEF08950BD0C0CFB1DF28F0B6DF47
:102BD00018F0952309F0A2CFA7CF1124EACFC6DFC2
:102BE000A0F3959FD1F3950F50E0551F629FF00120
:102BF000729FBB27F00DB11D639FAA27F00DB11D79
:102C0000AA1F649F6627B00DA11D661F829F222701
:102C1000B00DA11D621F739FB00DA11D621F839F88
:102C2000A00D611D221F749F3327A00D611D231F5E
:102C3000849F600D211D822F762F6A2F11249F57AC
:102C400050408AF0E1F088234AF0EE0FFF1FBB1FCF
:102C5000661F771F881F91505040A9F79E3F51056E
:102C600070F05CCFA6CF5F3FECF3983EDCF3869527
:102C700077956795B795F795E7959F5FC1F7FE2B19
:102C8000880F911D9695879597F9089523DF880BF6
:102C9000990B089597FB072E16F4009407D077FD43
:102CA00009D00E94801607FC05D03EF490958195CE
:102CB0009F4F0895709561957F4F0895A1E21A2E58
:102CC000AA1BBB1BFD010DC0AA1FBB1FEE1FFF1FD0
:102CD000A217B307E407F50720F0A21BB30BE40B20
:102CE000F50B661F771F881F991F1A9469F7609567
:102CF0007095809590959B01AC01BD01CF01089521
:102D0000AA1BBB1B51E107C0AA1FBB1FA617B70711
:102D100010F0A61BB70B881F991F5A95A9F780952D
:102D20009095BC01CD010895EE0FFF1F0590F49121
:102D3000E02D0994CF93DF938230910510F482E067
:102D400090E0E091B302F091B40220E030E0A0E026
:102D5000B0E0309739F14081518148175907B8F0F8
:102D60004817590771F482819381109729F01396BF
:102D70009C938E9312972CC09093B4028093B302CD
:102D800027C02115310531F04217530718F0A9016A
:102D9000DB0101C0EF019A01BD01DF010280F38177
:102DA000E02DD7CF21153105F9F0281B390B243040
:102DB000310580F48A819B816115710521F0FB0149
:102DC0009383828304C09093B4028093B302FE0184
:102DD000329644C0FE01E20FF31F8193919322507B
:102DE0003109398328833AC02091B1023091B2026F
:102DF000232B41F420910201309103013093B20260
:102E00002093B1022091000130910101211531057B
:102E100041F42DB73EB74091040150910501241BA8
:102E2000350BE091B102F091B202E217F307A0F482
:102E30002E1B3F0B2817390778F0AC014E5F5F4F10
:102E40002417350748F04E0F5F1F5093B20240938E
:102E5000B1028193919302C0E0E0F0E0CF01DF91F5
:102E6000CF910895CF93DF93009709F487C0FC01B9
:102E7000329713821282C091B302D091B40220978C
:102E800081F420813181280F391F8091B102909106
:102E9000B2028217930779F5F093B202E093B10280
:102EA0006DC0DE0120E030E0AE17BF0750F412968F
:102EB0004D915C9113979D014115510509F1DA017E
:102EC000F3CFB383A28340815181840F951F8A176A
:102ED0009B0771F48D919C911197840F951F029619
:102EE0009183808312968D919C9113979383828313
:102EF0002115310529F4F093B402E093B3023EC0EA
:102F0000D9011396FC93EE9312974D915D91A40F06
:102F1000B51FEA17FB0779F480819181840F951F13
:102F20000296D90111969C938E9382819381139678
:102F30009C938E931297E0E0F0E08A819B8100974A
:102F400019F0FE01EC01F9CFCE01029628813981FA
:102F5000820F931F2091B1023091B20228173907D6
:102F600069F4309729F41092B4021092B30202C0AF
:102F700013821282D093B202C093B102DF91CF913B
:102F800008958F929F92AF92BF92CF92DF92EF926D
:102F9000FF92CF93DF93EC01688179818A819B81D5
:102FA000611571058105910521F464E279ED8BE5E8
:102FB00097E02DE133EF41E050E00E9435184901E0
:102FC0005A019B01AC01A7EAB1E40E9454186B01BD
:102FD0007C01ACEEB4EFA50194010E946218C60E0C
:102FE000D71EE81EF91EF7FE06C081E0C81AD108F8
:102FF000E10880E8F80AC882D982EA82FB82C60129
:103000009F77DF91CF91FF90EF90DF90CF90BF90AF
:10301000AF909F908F9008950E94C117089586E009
:1030200091E00E94C1170895A0E0B0E080930601EE
:1030300090930701A0930801B09309010895F999AD
:10304000FECF92BD81BDF89A992780B50895262FAD
:10305000F999FECF1FBA92BD81BD20BD0FB6F8947D
:10306000FA9AF99A0FBE01960895052E97FB1EF461
:1030700000940E944C1857FD07D00E945E1607FC72
:1030800003D04EF40C944C185095409530952195F2
:103090003F4F4F4F5F4F0895909580957095619584
:1030A0007F4F8F4F9F4F08950E946718A59F900DE7
:1030B000B49F900DA49F800D911D11240895B7FF1A
:1030C0000C9454180E945418821B930B0895A29FCD
:1030D000B001B39FC001A39F700D811D1124911DEC
:1030E000B29F700D811D1124911D0895F894FFCF9A
:1030F0000000B50280000100000000000000B402E2
:103100009B02F602000000008004C604B203000027
:1031100000000D05FE04F0047374617274006469AC
:1031200073636F6E6E656374696E67006F666600C9
:1031300073696E676C65206672616D650074696D98
:1031400065206F66206461793A20002C20776561E4
:103150007468657220747970653A20002C206C695F
:103160006768746E696E673A2000706C61792064DC
:10317000656D6F00706C61792073617665640073B2
:10318000617665206672616D6500756E7265636F4C
:10319000676E697A65640000000000100D1A0D0F5B
:1031A0000D00000000440D450D460D00000000A973
:1031B0001015122B104410361087100D0A006E6186
:0C31C0006E00696E66006F7666002E00DF
:107E0000112484B714BE81FFF0D085E080938100F7
:107E100082E08093C00088E18093C10086E0809377
:107E2000C20080E18093C4008EE0C9D0259A86E02C
:107E300020E33CEF91E0309385002093840096BBD3
:107E4000B09BFECF1D9AA8958150A9F7CC24DD24C4
:107E500088248394B5E0AB2EA1E19A2EF3E0BF2EE7
:107E6000A2D0813461F49FD0082FAFD0023811F036
:107E7000013811F484E001C083E08DD089C08234E0
:107E800011F484E103C0853419F485E0A6D080C0E4
:107E9000853579F488D0E82EFF2485D0082F10E0AE
:107EA000102F00270E291F29000F111F8ED06801E7
:107EB0006FC0863521F484E090D080E0DECF843638
:107EC00009F040C070D06FD0082F6DD080E0C81688
:107ED00080E7D80618F4F601B7BEE895C0E0D1E017
:107EE00062D089930C17E1F7F0E0CF16F0E7DF06D8
:107EF00018F0F601B7BEE89568D007B600FCFDCFD4
:107F0000A601A0E0B1E02C9130E011968C91119780
:107F100090E0982F8827822B932B1296FA010C0160
:107F200087BEE89511244E5F5F4FF1E0A038BF0790
:107F300051F7F601A7BEE89507B600FCFDCF97BE46
:107F4000E89526C08437B1F42ED02DD0F82E2BD052
:107F50003CD0F601EF2C8F010F5F1F4F84911BD097
:107F6000EA94F801C1F70894C11CD11CFA94CF0C13
:107F7000D11C0EC0853739F428D08EE10CD085E9AC
:107F80000AD08FE07ACF813511F488E018D01DD067
:107F900080E101D065CF982F8091C00085FFFCCF94
:107FA0009093C60008958091C00087FFFCCF809118
:107FB000C00084FD01C0A8958091C6000895E0E648
:107FC000F0E098E1908380830895EDDF803219F02E
:107FD00088E0F5DFFFCF84E1DECF1F93182FE3DFCA
:107FE0001150E9F7F2DF1F91089580E0E8DFEE27F6
:047FF000FF270994CA
:027FFE00040479
:0400000300007E007B
:00000001FF
